{
  "contractName": "BGV",
  "abi": [
    {
      "anonymous": false,
      "inputs": [
        {
          "indexed": true,
          "internalType": "address",
          "name": "studentAddress",
          "type": "address"
        },
        {
          "indexed": false,
          "internalType": "string",
          "name": "hashValue",
          "type": "string"
        },
        {
          "indexed": false,
          "internalType": "enum BGV.AccessType",
          "name": "newAccessType",
          "type": "uint8"
        }
      ],
      "name": "DocumentAccessChanged",
      "type": "event"
    },
    {
      "anonymous": false,
      "inputs": [
        {
          "indexed": true,
          "internalType": "address",
          "name": "studentAddress",
          "type": "address"
        },
        {
          "indexed": false,
          "internalType": "string",
          "name": "documentName",
          "type": "string"
        },
        {
          "indexed": false,
          "internalType": "string",
          "name": "hashValue",
          "type": "string"
        },
        {
          "indexed": false,
          "internalType": "enum BGV.AccessType",
          "name": "access",
          "type": "uint8"
        }
      ],
      "name": "DocumentAdded",
      "type": "event"
    },
    {
      "anonymous": false,
      "inputs": [
        {
          "indexed": true,
          "internalType": "address",
          "name": "studentAddress",
          "type": "address"
        },
        {
          "indexed": false,
          "internalType": "string",
          "name": "name",
          "type": "string"
        },
        {
          "indexed": true,
          "internalType": "address",
          "name": "addedBy",
          "type": "address"
        }
      ],
      "name": "StudentAdded",
      "type": "event"
    },
    {
      "anonymous": false,
      "inputs": [
        {
          "indexed": true,
          "internalType": "address",
          "name": "universityAddress",
          "type": "address"
        },
        {
          "indexed": false,
          "internalType": "string",
          "name": "name",
          "type": "string"
        }
      ],
      "name": "UniversityAdded",
      "type": "event"
    },
    {
      "anonymous": false,
      "inputs": [
        {
          "indexed": true,
          "internalType": "address",
          "name": "verifierAddress",
          "type": "address"
        },
        {
          "indexed": false,
          "internalType": "string",
          "name": "organizationName",
          "type": "string"
        }
      ],
      "name": "VerifierAdded",
      "type": "event"
    },
    {
      "inputs": [
        {
          "internalType": "string",
          "name": "",
          "type": "string"
        }
      ],
      "name": "licenseNumbers",
      "outputs": [
        {
          "internalType": "bool",
          "name": "",
          "type": "bool"
        }
      ],
      "stateMutability": "view",
      "type": "function",
      "constant": true
    },
    {
      "inputs": [
        {
          "internalType": "address",
          "name": "",
          "type": "address"
        }
      ],
      "name": "students",
      "outputs": [
        {
          "internalType": "string",
          "name": "name",
          "type": "string"
        },
        {
          "internalType": "address",
          "name": "studentAddress",
          "type": "address"
        },
        {
          "internalType": "address",
          "name": "addedBy",
          "type": "address"
        }
      ],
      "stateMutability": "view",
      "type": "function",
      "constant": true
    },
    {
      "inputs": [
        {
          "internalType": "address",
          "name": "",
          "type": "address"
        }
      ],
      "name": "universities",
      "outputs": [
        {
          "internalType": "string",
          "name": "name",
          "type": "string"
        },
        {
          "internalType": "address",
          "name": "universityAddress",
          "type": "address"
        },
        {
          "internalType": "string",
          "name": "licenseNumber",
          "type": "string"
        },
        {
          "internalType": "bool",
          "name": "approvedByGovernment",
          "type": "bool"
        }
      ],
      "stateMutability": "view",
      "type": "function",
      "constant": true
    },
    {
      "inputs": [
        {
          "internalType": "uint256",
          "name": "",
          "type": "uint256"
        }
      ],
      "name": "universityAddresses",
      "outputs": [
        {
          "internalType": "address",
          "name": "",
          "type": "address"
        }
      ],
      "stateMutability": "view",
      "type": "function",
      "constant": true
    },
    {
      "inputs": [
        {
          "internalType": "uint256",
          "name": "",
          "type": "uint256"
        }
      ],
      "name": "verifierAddresses",
      "outputs": [
        {
          "internalType": "address",
          "name": "",
          "type": "address"
        }
      ],
      "stateMutability": "view",
      "type": "function",
      "constant": true
    },
    {
      "inputs": [
        {
          "internalType": "address",
          "name": "",
          "type": "address"
        }
      ],
      "name": "verifiers",
      "outputs": [
        {
          "internalType": "string",
          "name": "organizationName",
          "type": "string"
        },
        {
          "internalType": "address",
          "name": "verifierAddress",
          "type": "address"
        }
      ],
      "stateMutability": "view",
      "type": "function",
      "constant": true
    },
    {
      "inputs": [
        {
          "internalType": "string",
          "name": "_name",
          "type": "string"
        },
        {
          "internalType": "address",
          "name": "_studentAddress",
          "type": "address"
        }
      ],
      "name": "addStudent",
      "outputs": [],
      "stateMutability": "nonpayable",
      "type": "function"
    },
    {
      "inputs": [
        {
          "internalType": "address",
          "name": "_studentAddress",
          "type": "address"
        },
        {
          "internalType": "string",
          "name": "_documentName",
          "type": "string"
        },
        {
          "internalType": "string",
          "name": "_hashValue",
          "type": "string"
        },
        {
          "internalType": "enum BGV.AccessType",
          "name": "_access",
          "type": "uint8"
        }
      ],
      "name": "addDocumentToStudent",
      "outputs": [],
      "stateMutability": "nonpayable",
      "type": "function"
    },
    {
      "inputs": [
        {
          "internalType": "string",
          "name": "_name",
          "type": "string"
        },
        {
          "internalType": "address",
          "name": "_universityAddress",
          "type": "address"
        },
        {
          "internalType": "string",
          "name": "_licenseNumber",
          "type": "string"
        },
        {
          "internalType": "bool",
          "name": "_approvedByGovernment",
          "type": "bool"
        }
      ],
      "name": "addUniversity",
      "outputs": [],
      "stateMutability": "nonpayable",
      "type": "function"
    },
    {
      "inputs": [
        {
          "internalType": "address",
          "name": "_universityAddress",
          "type": "address"
        }
      ],
      "name": "isUniversityLegitimate",
      "outputs": [
        {
          "internalType": "bool",
          "name": "",
          "type": "bool"
        }
      ],
      "stateMutability": "view",
      "type": "function",
      "constant": true
    },
    {
      "inputs": [
        {
          "internalType": "address",
          "name": "_studentAddress",
          "type": "address"
        }
      ],
      "name": "getDocumentCount",
      "outputs": [
        {
          "internalType": "uint256",
          "name": "",
          "type": "uint256"
        }
      ],
      "stateMutability": "view",
      "type": "function",
      "constant": true
    },
    {
      "inputs": [
        {
          "internalType": "address",
          "name": "_studentAddress",
          "type": "address"
        },
        {
          "internalType": "string",
          "name": "_hashValue",
          "type": "string"
        }
      ],
      "name": "getDocumentDetails",
      "outputs": [
        {
          "internalType": "string",
          "name": "",
          "type": "string"
        },
        {
          "internalType": "string",
          "name": "",
          "type": "string"
        },
        {
          "internalType": "enum BGV.AccessType",
          "name": "",
          "type": "uint8"
        }
      ],
      "stateMutability": "view",
      "type": "function",
      "constant": true
    },
    {
      "inputs": [
        {
          "internalType": "address",
          "name": "_studentAddress",
          "type": "address"
        },
        {
          "internalType": "string",
          "name": "_hashValue",
          "type": "string"
        },
        {
          "internalType": "enum BGV.AccessType",
          "name": "_newAccessType",
          "type": "uint8"
        }
      ],
      "name": "changeDocumentAccess",
      "outputs": [],
      "stateMutability": "nonpayable",
      "type": "function"
    },
    {
      "inputs": [],
      "name": "getAllUniversities",
      "outputs": [
        {
          "components": [
            {
              "internalType": "string",
              "name": "name",
              "type": "string"
            },
            {
              "internalType": "address",
              "name": "universityAddress",
              "type": "address"
            },
            {
              "internalType": "string",
              "name": "licenseNumber",
              "type": "string"
            },
            {
              "internalType": "bool",
              "name": "approvedByGovernment",
              "type": "bool"
            }
          ],
          "internalType": "struct BGV.University[]",
          "name": "",
          "type": "tuple[]"
        }
      ],
      "stateMutability": "view",
      "type": "function",
      "constant": true
    },
    {
      "inputs": [
        {
          "internalType": "string",
          "name": "_organizationName",
          "type": "string"
        }
      ],
      "name": "addVerifier",
      "outputs": [],
      "stateMutability": "nonpayable",
      "type": "function"
    }
  ],
  "bytecode": "0x608060405234801561001057600080fd5b5061309d806100206000396000f3fe608060405234801561001057600080fd5b50600436106100f55760003560e01c80636166333f11610097578063a6c807a911610066578063a6c807a9146102a9578063d1924ede146102db578063f09955601461030b578063f597d9941461033e576100f5565b80636166333f146102105780636c8244871461022c5780636de053981461025d57806380409a991461028d576100f5565b80633b993fe0116100d35780633b993fe0146101785780634a9626d5146101a857806353977e54146101c457806355c2c852146101f4576100f5565b806310468c2f146100fa57806333dc49a31461011657806334ed269414610148575b600080fd5b610114600480360381019061010f91906122ef565b61035c565b005b610130600480360381019061012b9190612160565b610662565b60405161013f93929190612b55565b60405180910390f35b610162600480360381019061015d91906123d6565b61089a565b60405161016f91906129ea565b60405180910390f35b610192600480360381019061018d9190612137565b6108d9565b60405161019f9190612d1a565b60405180910390f35b6101c260048036038101906101bd91906121b4565b610927565b005b6101de60048036038101906101d99190612137565b610cc2565b6040516101eb9190612a27565b60405180910390f35b61020e600480360381019061020991906122ae565b610d75565b005b61022a60048036038101906102259190612343565b61106d565b005b61024660048036038101906102419190612137565b6113ad565b604051610254929190612a64565b60405180910390f35b610277600480360381019061027291906123d6565b611479565b60405161028491906129ea565b60405180910390f35b6102a760048036038101906102a2919061221b565b6114b8565b005b6102c360048036038101906102be9190612137565b6119cc565b6040516102d293929190612a94565b60405180910390f35b6102f560048036038101906102f091906122ae565b611abe565b6040516103029190612a27565b60405180910390f35b61032560048036038101906103209190612137565b611af4565b6040516103359493929190612ad2565b60405180910390f35b610346611c61565b6040516103539190612a05565b60405180910390f35b33600160008273ffffffffffffffffffffffffffffffffffffffff1673ffffffffffffffffffffffffffffffffffffffff16815260200190815260200160002060030160009054906101000a900460ff16801561040757506000600160008373ffffffffffffffffffffffffffffffffffffffff1673ffffffffffffffffffffffffffffffffffffffff168152602001908152602001600020600201805461040390612eb6565b9050115b610446576040517f08c379a000000000000000000000000000000000000000000000000000000000815260040161043d90612c1a565b60405180910390fd5b600073ffffffffffffffffffffffffffffffffffffffff166000808473ffffffffffffffffffffffffffffffffffffffff1673ffffffffffffffffffffffffffffffffffffffff16815260200190815260200160002060010160009054906101000a900473ffffffffffffffffffffffffffffffffffffffff1673ffffffffffffffffffffffffffffffffffffffff1614610516576040517f08c379a000000000000000000000000000000000000000000000000000000000815260040161050d90612c9a565b60405180910390fd5b60008060008473ffffffffffffffffffffffffffffffffffffffff1673ffffffffffffffffffffffffffffffffffffffff168152602001908152602001600020905083816000019080519060200190610570929190611f98565b50828160010160006101000a81548173ffffffffffffffffffffffffffffffffffffffff021916908373ffffffffffffffffffffffffffffffffffffffff160217905550338160020160006101000a81548173ffffffffffffffffffffffffffffffffffffffff021916908373ffffffffffffffffffffffffffffffffffffffff1602179055503373ffffffffffffffffffffffffffffffffffffffff168373ffffffffffffffffffffffffffffffffffffffff167fc902157d0d935238ddf40055643d8152eef5670ddb5272f02869e8dbeaf5dcd6866040516106549190612a42565b60405180910390a350505050565b6060806000806000808773ffffffffffffffffffffffffffffffffffffffff1673ffffffffffffffffffffffffffffffffffffffff168152602001908152602001600020600301856040516106b791906129d3565b90815260200160405180910390206040518060600160405290816000820180546106e090612eb6565b80601f016020809104026020016040519081016040528092919081815260200182805461070c90612eb6565b80156107595780601f1061072e57610100808354040283529160200191610759565b820191906000526020600020905b81548152906001019060200180831161073c57829003601f168201915b5050505050815260200160018201805461077290612eb6565b80601f016020809104026020016040519081016040528092919081815260200182805461079e90612eb6565b80156107eb5780601f106107c0576101008083540402835291602001916107eb565b820191906000526020600020905b8154815290600101906020018083116107ce57829003601f168201915b505050505081526020016002820160009054906101000a900460ff16600281111561083f577f4e487b7100000000000000000000000000000000000000000000000000000000600052602160045260246000fd5b6002811115610877577f4e487b7100000000000000000000000000000000000000000000000000000000600052602160045260246000fd5b815250509050806000015181602001518260400151935093509350509250925092565b600481815481106108aa57600080fd5b906000526020600020016000915054906101000a900473ffffffffffffffffffffffffffffffffffffffff1681565b60008060008373ffffffffffffffffffffffffffffffffffffffff1673ffffffffffffffffffffffffffffffffffffffff168152602001908152602001600020600401805490509050919050565b600073ffffffffffffffffffffffffffffffffffffffff166000808573ffffffffffffffffffffffffffffffffffffffff1673ffffffffffffffffffffffffffffffffffffffff16815260200190815260200160002060010160009054906101000a900473ffffffffffffffffffffffffffffffffffffffff1673ffffffffffffffffffffffffffffffffffffffff1614156109f8576040517f08c379a00000000000000000000000000000000000000000000000000000000081526004016109ef90612c5a565b60405180910390fd5b8273ffffffffffffffffffffffffffffffffffffffff163373ffffffffffffffffffffffffffffffffffffffff1614610a66576040517f08c379a0000000000000000000000000000000000000000000000000000000008152600401610a5d90612cda565b60405180910390fd5b60006002811115610aa0577f4e487b7100000000000000000000000000000000000000000000000000000000600052602160045260246000fd5b6002811115610ad8577f4e487b7100000000000000000000000000000000000000000000000000000000600052602160045260246000fd5b6000808573ffffffffffffffffffffffffffffffffffffffff1673ffffffffffffffffffffffffffffffffffffffff16815260200190815260200160002060030183604051610b2791906129d3565b908152602001604051809103902060020160009054906101000a900460ff166002811115610b7e577f4e487b7100000000000000000000000000000000000000000000000000000000600052602160045260246000fd5b1415610bbf576040517f08c379a0000000000000000000000000000000000000000000000000000000008152600401610bb690612cfa565b60405180910390fd5b806000808573ffffffffffffffffffffffffffffffffffffffff1673ffffffffffffffffffffffffffffffffffffffff16815260200190815260200160002060030183604051610c0f91906129d3565b908152602001604051809103902060020160006101000a81548160ff02191690836002811115610c68577f4e487b7100000000000000000000000000000000000000000000000000000000600052602160045260246000fd5b02179055508273ffffffffffffffffffffffffffffffffffffffff167fe3e944fc29fcec957aa4c092fd5a446e596a5f82f9a1f418c68fa44ddf65e5f28383604051610cb5929190612b25565b60405180910390a2505050565b6000600160008373ffffffffffffffffffffffffffffffffffffffff1673ffffffffffffffffffffffffffffffffffffffff16815260200190815260200160002060030160009054906101000a900460ff168015610d6e57506000600160008473ffffffffffffffffffffffffffffffffffffffff1673ffffffffffffffffffffffffffffffffffffffff1681526020019081526020016000206002018054610d6a90612eb6565b9050115b9050919050565b33600073ffffffffffffffffffffffffffffffffffffffff16600360003373ffffffffffffffffffffffffffffffffffffffff1673ffffffffffffffffffffffffffffffffffffffff16815260200190815260200160002060010160009054906101000a900473ffffffffffffffffffffffffffffffffffffffff1673ffffffffffffffffffffffffffffffffffffffff1614610e47576040517f08c379a0000000000000000000000000000000000000000000000000000000008152600401610e3e90612bfa565b60405180910390fd5b600073ffffffffffffffffffffffffffffffffffffffff16600360003373ffffffffffffffffffffffffffffffffffffffff1673ffffffffffffffffffffffffffffffffffffffff16815260200190815260200160002060010160009054906101000a900473ffffffffffffffffffffffffffffffffffffffff1673ffffffffffffffffffffffffffffffffffffffff1614610f18576040517f08c379a0000000000000000000000000000000000000000000000000000000008152600401610f0f90612b9a565b60405180910390fd5b6000600360003373ffffffffffffffffffffffffffffffffffffffff1673ffffffffffffffffffffffffffffffffffffffff168152602001908152602001600020905082816000019080519060200190610f73929190611f98565b50338160010160006101000a81548173ffffffffffffffffffffffffffffffffffffffff021916908373ffffffffffffffffffffffffffffffffffffffff1602179055506005339080600181540180825580915050600190039060005260206000200160009091909190916101000a81548173ffffffffffffffffffffffffffffffffffffffff021916908373ffffffffffffffffffffffffffffffffffffffff1602179055503373ffffffffffffffffffffffffffffffffffffffff167f30b5eb94a54f18a967aed7e72caf39194d0f0ba44ed3fed9febc2f3555561158846040516110609190612a42565b60405180910390a2505050565b600073ffffffffffffffffffffffffffffffffffffffff16600160008573ffffffffffffffffffffffffffffffffffffffff1673ffffffffffffffffffffffffffffffffffffffff16815260200190815260200160002060010160009054906101000a900473ffffffffffffffffffffffffffffffffffffffff1673ffffffffffffffffffffffffffffffffffffffff161461113e576040517f08c379a000000000000000000000000000000000000000000000000000000000815260040161113590612bda565b60405180910390fd5b60028260405161114e91906129d3565b908152602001604051809103902060009054906101000a900460ff16156111aa576040517f08c379a00000000000000000000000000000000000000000000000000000000081526004016111a190612cba565b60405180910390fd5b806111ea576040517f08c379a00000000000000000000000000000000000000000000000000000000081526004016111e190612c7a565b60405180910390fd5b6000600160008573ffffffffffffffffffffffffffffffffffffffff1673ffffffffffffffffffffffffffffffffffffffff168152602001908152602001600020905084816000019080519060200190611245929190611f98565b50838160010160006101000a81548173ffffffffffffffffffffffffffffffffffffffff021916908373ffffffffffffffffffffffffffffffffffffffff160217905550828160020190805190602001906112a1929190611f98565b50818160030160006101000a81548160ff0219169083151502179055506004849080600181540180825580915050600190039060005260206000200160009091909190916101000a81548173ffffffffffffffffffffffffffffffffffffffff021916908373ffffffffffffffffffffffffffffffffffffffff160217905550600160028460405161133391906129d3565b908152602001604051809103902060006101000a81548160ff0219169083151502179055508373ffffffffffffffffffffffffffffffffffffffff167fec1e06e5bcd47cc0ab9791be5856f0e0bab5a2be711f3f3fd979d4c694c7c1f98660405161139e9190612a42565b60405180910390a25050505050565b60036020528060005260406000206000915090508060000180546113d090612eb6565b80601f01602080910402602001604051908101604052809291908181526020018280546113fc90612eb6565b80156114495780601f1061141e57610100808354040283529160200191611449565b820191906000526020600020905b81548152906001019060200180831161142c57829003601f168201915b5050505050908060010160009054906101000a900473ffffffffffffffffffffffffffffffffffffffff16905082565b6005818154811061148957600080fd5b906000526020600020016000915054906101000a900473ffffffffffffffffffffffffffffffffffffffff1681565b600073ffffffffffffffffffffffffffffffffffffffff166000808673ffffffffffffffffffffffffffffffffffffffff1673ffffffffffffffffffffffffffffffffffffffff16815260200190815260200160002060010160009054906101000a900473ffffffffffffffffffffffffffffffffffffffff1673ffffffffffffffffffffffffffffffffffffffff161415611589576040517f08c379a000000000000000000000000000000000000000000000000000000000815260040161158090612c5a565b60405180910390fd5b6000808573ffffffffffffffffffffffffffffffffffffffff1673ffffffffffffffffffffffffffffffffffffffff16815260200190815260200160002060020160009054906101000a900473ffffffffffffffffffffffffffffffffffffffff1673ffffffffffffffffffffffffffffffffffffffff163373ffffffffffffffffffffffffffffffffffffffff1614611658576040517f08c379a000000000000000000000000000000000000000000000000000000000815260040161164f90612bba565b60405180910390fd5b60006002811115611692577f4e487b7100000000000000000000000000000000000000000000000000000000600052602160045260246000fd5b60028111156116ca577f4e487b7100000000000000000000000000000000000000000000000000000000600052602160045260246000fd5b6000808673ffffffffffffffffffffffffffffffffffffffff1673ffffffffffffffffffffffffffffffffffffffff1681526020019081526020016000206003018360405161171991906129d3565b908152602001604051809103902060020160009054906101000a900460ff166002811115611770577f4e487b7100000000000000000000000000000000000000000000000000000000600052602160045260246000fd5b146117b0576040517f08c379a00000000000000000000000000000000000000000000000000000000081526004016117a790612c3a565b60405180910390fd5b60006040518060600160405280858152602001848152602001836002811115611802577f4e487b7100000000000000000000000000000000000000000000000000000000600052602160045260246000fd5b8152509050806000808773ffffffffffffffffffffffffffffffffffffffff1673ffffffffffffffffffffffffffffffffffffffff1681526020019081526020016000206003018460405161185791906129d3565b90815260200160405180910390206000820151816000019080519060200190611881929190611f98565b50602082015181600101908051906020019061189e929190611f98565b5060408201518160020160006101000a81548160ff021916908360028111156118f0577f4e487b7100000000000000000000000000000000000000000000000000000000600052602160045260246000fd5b02179055509050506000808673ffffffffffffffffffffffffffffffffffffffff1673ffffffffffffffffffffffffffffffffffffffff16815260200190815260200160002060040183908060018154018082558091505060019003906000526020600020016000909190919091509080519060200190611972929190611f98565b508473ffffffffffffffffffffffffffffffffffffffff167f7e36441495113984545f29a9881ab6081c3c29c3ad9d8a38168758d2d7dbfc258585856040516119bd93929190612b55565b60405180910390a25050505050565b60006020528060005260406000206000915090508060000180546119ef90612eb6565b80601f0160208091040260200160405190810160405280929190818152602001828054611a1b90612eb6565b8015611a685780601f10611a3d57610100808354040283529160200191611a68565b820191906000526020600020905b815481529060010190602001808311611a4b57829003601f168201915b5050505050908060010160009054906101000a900473ffffffffffffffffffffffffffffffffffffffff16908060020160009054906101000a900473ffffffffffffffffffffffffffffffffffffffff16905083565b6002818051602081018201805184825260208301602085012081835280955050505050506000915054906101000a900460ff1681565b6001602052806000526040600020600091509050806000018054611b1790612eb6565b80601f0160208091040260200160405190810160405280929190818152602001828054611b4390612eb6565b8015611b905780601f10611b6557610100808354040283529160200191611b90565b820191906000526020600020905b815481529060010190602001808311611b7357829003601f168201915b5050505050908060010160009054906101000a900473ffffffffffffffffffffffffffffffffffffffff1690806002018054611bcb90612eb6565b80601f0160208091040260200160405190810160405280929190818152602001828054611bf790612eb6565b8015611c445780601f10611c1957610100808354040283529160200191611c44565b820191906000526020600020905b815481529060010190602001808311611c2757829003601f168201915b5050505050908060030160009054906101000a900460ff16905084565b6060600060048054905067ffffffffffffffff811115611caa577f4e487b7100000000000000000000000000000000000000000000000000000000600052604160045260246000fd5b604051908082528060200260200182016040528015611ce357816020015b611cd061201e565b815260200190600190039081611cc85790505b50905060005b600480549050811015611f90576001600060048381548110611d34577f4e487b7100000000000000000000000000000000000000000000000000000000600052603260045260246000fd5b9060005260206000200160009054906101000a900473ffffffffffffffffffffffffffffffffffffffff1673ffffffffffffffffffffffffffffffffffffffff1673ffffffffffffffffffffffffffffffffffffffff168152602001908152602001600020604051806080016040529081600082018054611db490612eb6565b80601f0160208091040260200160405190810160405280929190818152602001828054611de090612eb6565b8015611e2d5780601f10611e0257610100808354040283529160200191611e2d565b820191906000526020600020905b815481529060010190602001808311611e1057829003601f168201915b505050505081526020016001820160009054906101000a900473ffffffffffffffffffffffffffffffffffffffff1673ffffffffffffffffffffffffffffffffffffffff1673ffffffffffffffffffffffffffffffffffffffff168152602001600282018054611e9c90612eb6565b80601f0160208091040260200160405190810160405280929190818152602001828054611ec890612eb6565b8015611f155780601f10611eea57610100808354040283529160200191611f15565b820191906000526020600020905b815481529060010190602001808311611ef857829003601f168201915b505050505081526020016003820160009054906101000a900460ff161515151581525050828281518110611f72577f4e487b7100000000000000000000000000000000000000000000000000000000600052603260045260246000fd5b60200260200101819052508080611f8890612ee8565b915050611ce9565b508091505090565b828054611fa490612eb6565b90600052602060002090601f016020900481019282611fc6576000855561200d565b82601f10611fdf57805160ff191683800117855561200d565b8280016001018555821561200d579182015b8281111561200c578251825591602001919060010190611ff1565b5b50905061201a919061205e565b5090565b604051806080016040528060608152602001600073ffffffffffffffffffffffffffffffffffffffff168152602001606081526020016000151581525090565b5b8082111561207757600081600090555060010161205f565b5090565b600061208e61208984612d66565b612d35565b9050828152602081018484840111156120a657600080fd5b6120b1848285612e74565b509392505050565b6000813590506120c881613012565b92915050565b6000813590506120dd81613029565b92915050565b6000813590506120f281613040565b92915050565b600082601f83011261210957600080fd5b813561211984826020860161207b565b91505092915050565b60008135905061213181613050565b92915050565b60006020828403121561214957600080fd5b6000612157848285016120b9565b91505092915050565b6000806040838503121561217357600080fd5b6000612181858286016120b9565b925050602083013567ffffffffffffffff81111561219e57600080fd5b6121aa858286016120f8565b9150509250929050565b6000806000606084860312156121c957600080fd5b60006121d7868287016120b9565b935050602084013567ffffffffffffffff8111156121f457600080fd5b612200868287016120f8565b9250506040612211868287016120e3565b9150509250925092565b6000806000806080858703121561223157600080fd5b600061223f878288016120b9565b945050602085013567ffffffffffffffff81111561225c57600080fd5b612268878288016120f8565b935050604085013567ffffffffffffffff81111561228557600080fd5b612291878288016120f8565b92505060606122a2878288016120e3565b91505092959194509250565b6000602082840312156122c057600080fd5b600082013567ffffffffffffffff8111156122da57600080fd5b6122e6848285016120f8565b91505092915050565b6000806040838503121561230257600080fd5b600083013567ffffffffffffffff81111561231c57600080fd5b612328858286016120f8565b9250506020612339858286016120b9565b9150509250929050565b6000806000806080858703121561235957600080fd5b600085013567ffffffffffffffff81111561237357600080fd5b61237f878288016120f8565b9450506020612390878288016120b9565b935050604085013567ffffffffffffffff8111156123ad57600080fd5b6123b9878288016120f8565b92505060606123ca878288016120ce565b91505092959194509250565b6000602082840312156123e857600080fd5b60006123f684828501612122565b91505092915050565b600061240b838361295a565b905092915050565b61241c81612e07565b82525050565b61242b81612e07565b82525050565b600061243c82612da6565b6124468185612dc9565b93508360208202850161245885612d96565b8060005b85811015612494578484038952815161247585826123ff565b945061248083612dbc565b925060208a0199505060018101905061245c565b50829750879550505050505092915050565b6124af81612e19565b82525050565b6124be81612e19565b82525050565b6124cd81612e62565b82525050565b60006124de82612db1565b6124e88185612dda565b93506124f8818560208601612e83565b61250181612fed565b840191505092915050565b600061251782612db1565b6125218185612deb565b9350612531818560208601612e83565b61253a81612fed565b840191505092915050565b600061255082612db1565b61255a8185612dfc565b935061256a818560208601612e83565b80840191505092915050565b6000612583602983612deb565b91507f566572696669657220776974682074686973206164647265737320616c72656160008301527f64792065786973747300000000000000000000000000000000000000000000006020830152604082019050919050565b60006125e9603c83612deb565b91507f4f6e6c792074686520756e69766572736974792074686174206164646564207460008301527f68652073747564656e742063616e2061646420646f63756d656e7473000000006020830152604082019050919050565b600061264f602183612deb565b91507f556e6976657273697479206164647265737320616c726561647920657869737460008301527f73000000000000000000000000000000000000000000000000000000000000006020830152604082019050919050565b60006126b5601783612deb565b91507f566572696669657220616c7265616479206578697374730000000000000000006000830152602082019050919050565b60006126f5602e83612deb565b91507f4f6e6c792061206c65676974696d61746520756e69766572736974792063616e60008301527f2061646420612073747564656e740000000000000000000000000000000000006020830152604082019050919050565b600061275b601783612deb565b91507f446f63756d656e7420616c7265616479206578697374730000000000000000006000830152602082019050919050565b600061279b601683612deb565b91507f53747564656e7420646f6573206e6f74206578697374000000000000000000006000830152602082019050919050565b60006127db602d83612deb565b91507f556e6976657273697479206d75737420626520617070726f766564206279207460008301527f686520676f7665726e6d656e74000000000000000000000000000000000000006020830152604082019050919050565b6000612841601683612deb565b91507f53747564656e7420616c726561647920657869737473000000000000000000006000830152602082019050919050565b6000612881601d83612deb565b91507f4c6963656e7365206e756d62657220616c7265616479206578697374730000006000830152602082019050919050565b60006128c1602b83612deb565b91507f4f6e6c79207468652073747564656e742063616e206368616e676520646f637560008301527f6d656e74206163636573730000000000000000000000000000000000000000006020830152604082019050919050565b6000612927601783612deb565b91507f446f63756d656e7420646f6573206e6f742065786973740000000000000000006000830152602082019050919050565b6000608083016000830151848203600086015261297782826124d3565b915050602083015161298c6020860182612413565b50604083015184820360408601526129a482826124d3565b91505060608301516129b960608601826124a6565b508091505092915050565b6129cd81612e58565b82525050565b60006129df8284612545565b915081905092915050565b60006020820190506129ff6000830184612422565b92915050565b60006020820190508181036000830152612a1f8184612431565b905092915050565b6000602082019050612a3c60008301846124b5565b92915050565b60006020820190508181036000830152612a5c818461250c565b905092915050565b60006040820190508181036000830152612a7e818561250c565b9050612a8d6020830184612422565b9392505050565b60006060820190508181036000830152612aae818661250c565b9050612abd6020830185612422565b612aca6040830184612422565b949350505050565b60006080820190508181036000830152612aec818761250c565b9050612afb6020830186612422565b8181036040830152612b0d818561250c565b9050612b1c60608301846124b5565b95945050505050565b60006040820190508181036000830152612b3f818561250c565b9050612b4e60208301846124c4565b9392505050565b60006060820190508181036000830152612b6f818661250c565b90508181036020830152612b83818561250c565b9050612b9260408301846124c4565b949350505050565b60006020820190508181036000830152612bb381612576565b9050919050565b60006020820190508181036000830152612bd3816125dc565b9050919050565b60006020820190508181036000830152612bf381612642565b9050919050565b60006020820190508181036000830152612c13816126a8565b9050919050565b60006020820190508181036000830152612c33816126e8565b9050919050565b60006020820190508181036000830152612c538161274e565b9050919050565b60006020820190508181036000830152612c738161278e565b9050919050565b60006020820190508181036000830152612c93816127ce565b9050919050565b60006020820190508181036000830152612cb381612834565b9050919050565b60006020820190508181036000830152612cd381612874565b9050919050565b60006020820190508181036000830152612cf3816128b4565b9050919050565b60006020820190508181036000830152612d138161291a565b9050919050565b6000602082019050612d2f60008301846129c4565b92915050565b6000604051905081810181811067ffffffffffffffff82111715612d5c57612d5b612fbe565b5b8060405250919050565b600067ffffffffffffffff821115612d8157612d80612fbe565b5b601f19601f8301169050602081019050919050565b6000819050602082019050919050565b600081519050919050565b600081519050919050565b6000602082019050919050565b600082825260208201905092915050565b600082825260208201905092915050565b600082825260208201905092915050565b600081905092915050565b6000612e1282612e38565b9050919050565b60008115159050919050565b6000819050612e3382612ffe565b919050565b600073ffffffffffffffffffffffffffffffffffffffff82169050919050565b6000819050919050565b6000612e6d82612e25565b9050919050565b82818337600083830152505050565b60005b83811015612ea1578082015181840152602081019050612e86565b83811115612eb0576000848401525b50505050565b60006002820490506001821680612ece57607f821691505b60208210811415612ee257612ee1612f8f565b5b50919050565b6000612ef382612e58565b91507fffffffffffffffffffffffffffffffffffffffffffffffffffffffffffffffff821415612f2657612f25612f31565b5b600182019050919050565b7f4e487b7100000000000000000000000000000000000000000000000000000000600052601160045260246000fd5b7f4e487b7100000000000000000000000000000000000000000000000000000000600052602160045260246000fd5b7f4e487b7100000000000000000000000000000000000000000000000000000000600052602260045260246000fd5b7f4e487b7100000000000000000000000000000000000000000000000000000000600052604160045260246000fd5b6000601f19601f8301169050919050565b6003811061300f5761300e612f60565b5b50565b61301b81612e07565b811461302657600080fd5b50565b61303281612e19565b811461303d57600080fd5b50565b6003811061304d57600080fd5b50565b61305981612e58565b811461306457600080fd5b5056fea26469706673582212206d080a545a4f75686f5db9c6c1a11be16a509d98224697d8da14954d43a0e2b864736f6c63430008000033",
  "immutableReferences": {},
  "source": "// SPDX-License-Identifier: MIT\npragma solidity ^0.8.0;\n\ncontract BGV {\n    // Enum to represent document access control\n    enum AccessType { CompanyOnly, StudentOnly, Both }\n\n    // Struct to represent a document\n    struct Document {\n        string name;\n        string hashValue;\n        AccessType access;\n    }\n\n    // Struct to represent a student\n    struct Student {\n        string name;\n        address studentAddress;\n        address addedBy; // Address of the university that added the student\n        mapping(string => Document) documents; // Mapping of hashValue to Document\n        string[] documentKeys; // Array to store keys of documents mapping\n    }\n\n    // Struct to represent a university\n    struct University {\n        string name;\n        address universityAddress;\n        string licenseNumber;\n        bool approvedByGovernment;\n    }\n\n        // Struct to represent a verifier\n    struct Verifier {\n        string organizationName;\n        address verifierAddress;\n    }\n\n    // Mapping to store students by their Ethereum address\n    mapping(address => Student) public students;\n\n    // Mapping to store universities by their Ethereum address\n    mapping(address => University) public universities;\n\n    // Mapping to store license numbers to prevent duplicates\n    mapping(string => bool) public licenseNumbers;\n\n     // Mapping to store verifiers by their Ethereum address\n    mapping(address => Verifier) public verifiers;\n\n    // Array to store university addresses\n    address[] public universityAddresses;\n\n    // Array to store verifier addresses\n    address[] public verifierAddresses;\n\n    // Event to emit when a new student is added\n    event StudentAdded(address indexed studentAddress, string name, address indexed addedBy);\n\n    // Event to emit when a new document is added to a student\n    event DocumentAdded(address indexed studentAddress, string documentName, string hashValue, AccessType access);\n\n    // Event to emit when a new university is added\n    event UniversityAdded(address indexed universityAddress, string name);\n\n    // Event to emit when document access type is changed\n    event DocumentAccessChanged(address indexed studentAddress, string hashValue, AccessType newAccessType);\n\n     // Event to emit when a new verifier is added\n    event VerifierAdded(address indexed verifierAddress, string organizationName);\n\n    // Modifier to ensure only a legitimate verifier can add themselves\n    modifier onlyLegitimateVerifier(address _organizationAddress) {\n        require(verifiers[msg.sender].verifierAddress == address(0), \"Verifier already exists\");\n        _;\n    }\n    // Modifier to ensure only a legitimate university can add a student\n    modifier onlyLegitimateUniversity(address _universityAddress) {\n        require(universities[_universityAddress].approvedByGovernment && bytes(universities[_universityAddress].licenseNumber).length > 0, \"Only a legitimate university can add a student\");\n        _;\n    }\n\n    // Function to add a new student\n    function addStudent(string memory _name, address _studentAddress) public onlyLegitimateUniversity(msg.sender) {\n        // Ensure the student does not already exist\n        require(students[_studentAddress].studentAddress == address(0), \"Student already exists\");\n\n        // Create a new student\n        Student storage newStudent = students[_studentAddress];\n        newStudent.name = _name;\n        newStudent.studentAddress = _studentAddress;\n        newStudent.addedBy = msg.sender; // Set the university that added the student\n\n        // Emit an event to notify that a new student has been added\n        emit StudentAdded(_studentAddress, _name, msg.sender);\n    }\n\n    // Function to add a document to an existing student\n    function addDocumentToStudent(address _studentAddress, string memory _documentName, string memory _hashValue, AccessType _access) public {\n        // Ensure the student exists\n        require(students[_studentAddress].studentAddress != address(0), \"Student does not exist\");\n\n        // Ensure the caller is the university that added the student\n        require(msg.sender == students[_studentAddress].addedBy, \"Only the university that added the student can add documents\");\n\n        // Check if a document with the same hash value already exists\n        require(students[_studentAddress].documents[_hashValue].access == AccessType(0), \"Document already exists\");\n\n        // Create a new document\n        Document memory newDocument = Document({\n            name: _documentName,\n            hashValue: _hashValue,\n            access: _access\n        });\n\n        // Add the document to the student's mapping\n        students[_studentAddress].documents[_hashValue] = newDocument;\n        students[_studentAddress].documentKeys.push(_hashValue); // Add the key to documentKeys array\n\n        // Emit an event to notify that a new document has been added to the student\n        emit DocumentAdded(_studentAddress, _documentName, _hashValue, _access);\n    }\n\n    // Function to add a new university\n    function addUniversity(string memory _name, address _universityAddress, string memory _licenseNumber, bool _approvedByGovernment) public {\n        // Ensure the university address is unique\n        require(universities[_universityAddress].universityAddress == address(0), \"University address already exists\");\n\n        // Ensure the license number is unique\n        require(!licenseNumbers[_licenseNumber], \"License number already exists\");\n\n        // Ensure the university is approved by the government\n        require(_approvedByGovernment, \"University must be approved by the government\");\n\n        // Create a new university\n        University storage newUniversity = universities[_universityAddress];\n        newUniversity.name = _name;\n        newUniversity.universityAddress = _universityAddress;\n        newUniversity.licenseNumber = _licenseNumber;\n        newUniversity.approvedByGovernment = _approvedByGovernment;\n\n        // Add university address to the array\n        universityAddresses.push(_universityAddress);\n\n        // Mark the license number as used\n        licenseNumbers[_licenseNumber] = true;\n\n        // Emit an event to notify that a new university has been added\n        emit UniversityAdded(_universityAddress, _name);\n    }\n\n    // Function to verify if a university is legitimate\n    function isUniversityLegitimate(address _universityAddress) public view returns (bool) {\n        return universities[_universityAddress].approvedByGovernment && bytes(universities[_universityAddress].licenseNumber).length > 0;\n    }\n\n    // Function to get the count of documents for a student\n    function getDocumentCount(address _studentAddress) public view returns (uint) {\n        return students[_studentAddress].documentKeys.length;\n    }\n\n    // Function to get the details of a document for a student\n    function getDocumentDetails(address _studentAddress, string memory _hashValue) public view returns (string memory, string memory, AccessType) {\n        Document memory doc = students[_studentAddress].documents[_hashValue];\n        return (doc.name, doc.hashValue, doc.access);\n    }\n\n    // Function to change the access type of a document for a student\n    function changeDocumentAccess(address _studentAddress, string memory _hashValue, AccessType _newAccessType) public {\n        // Ensure the student exists\n        require(students[_studentAddress].studentAddress != address(0), \"Student does not exist\");\n\n        // Ensure the caller is the student who owns the document\n        require(msg.sender == _studentAddress, \"Only the student can change document access\");\n\n        // Ensure the document exists\n        require(students[_studentAddress].documents[_hashValue].access != AccessType(0), \"Document does not exist\");\n\n        // Update the document access type\n        students[_studentAddress].documents[_hashValue].access = _newAccessType;\n\n        // Emit an event to notify that document access has been changed\n        emit DocumentAccessChanged(_studentAddress, _hashValue, _newAccessType);\n    }\n\n    // Function to get all universities added\n    function getAllUniversities() public view returns (University[] memory) {\n        University[] memory allUniversities = new University[](universityAddresses.length);\n        for (uint i = 0; i < universityAddresses.length; i++) {\n            allUniversities[i] = universities[universityAddresses[i]];\n        }\n        return allUniversities;\n    }\n\n     // Function to add a new verifier\n    function addVerifier(string memory _organizationName) public onlyLegitimateVerifier(msg.sender) {\n        \n        require(verifiers[msg.sender].verifierAddress == address(0), \"Verifier with this address already exists\");\n        // Create a new verifier\n        Verifier storage newVerifier = verifiers[msg.sender];\n        newVerifier.organizationName = _organizationName;\n        newVerifier.verifierAddress = msg.sender;\n\n        // Add verifier address to the array\n        verifierAddresses.push(msg.sender);\n\n        // Emit an event to notify that a new verifier has been added\n        emit VerifierAdded(msg.sender, _organizationName);\n    } \n}",
  "sourcePath": "C:\\Users\\DELL\\Desktop\\EMPVERIFY\\contracts\\BGV.sol",
  "compiler": {
    "name": "solc",
    "version": "0.8.0+commit.c7dfd78e.Emscripten.clang"
  },
  "schemaVersion": "3.4.16",
  "updatedAt": "2024-05-20T07:35:30.802Z",
  "networkType": "ethereum",
  "devdoc": {
    "kind": "dev",
    "methods": {},
    "version": 1
  },
  "userdoc": {
    "kind": "user",
    "methods": {},
    "version": 1
  }
}